:100000000C9450000C9462000C9462000C946200FA
:100010000C9462000C9462000C9462000C946200D8
:100020000C9462000C9462000C9462000C946200C8
:100030000C9462000C9462000C9462000C946200B8
:100040000C9462000C9462000C9462000C946200A8
:100050000C9462000C9462000C9462000C94620098
:100060000C9462000C9462000C9462000C94620088
:100070000C9462000C9462000C9462000C94620078
:100080000C9462000C9462000C9462000C94620068
:100090000C9462000C9462000C9462000C94620058
:1000A00011241FBECFEFCDBFDFE3DEBF28E2A0E00B
:1000B000B8E201C01D92A130B207E1F70E944404EA
:1000C0000C9466070C9400000E9404050895CF93D9
:1000D000DF930097E9F0EC0161E088810E94DB008A
:1000E000698188810E94DC006A8188810E94E80021
:1000F0006B8188810E94EC006C8188810E94ED00F8
:100100006C8188810E94F9006E8188810E940501BE
:10011000DF91CF9108950E94E90008950E94110196
:1001200008950E94160108950E941B0108950E94DF
:10013000230108950E942A010895EF92FF920F93E0
:100140001F93CF93DF93009761F1EC018C01085E60
:100150001F4F4A814330E1F0698188810E94590133
:100160004D81698188810E9457024E816981888111
:100170000E94E4028A81813081F44C816981888106
:100180000E94E5024F81698188810E94040305C0B5
:100190004B81698188810E94E6022896C017D107A9
:1001A000C1F6DF91CF911F910F91FF90EF900895CD
:1001B0000E94040308950895653549F0811107C030
:1001C000E0E0F6E081816470887F682B61830895A8
:1001D00008956093002808950895653549F08111C8
:1001E00007C0E0E0F6E082816770887F682B628359
:1001F0000895653549F0811107C0E0E0F6E080819F
:1002000064708B7F682B60830895653549F0811198
:1002100007C0E0E0F6E0828160738F7C682B628328
:100220000895811102C0109216060895811102C02E
:100230000E94A7040895811103C00E94B704089585
:1002400080E090E00895811103C00E94B3040895F6
:1002500080E00895811104C0809100280E94AD04BF
:100260000895683000F5863000F5843038F4823027
:10027000F0F48823E1F0813039F004C0843049F093
:10028000853061F080E0089581E0663088F080E09C
:10029000089581E0653060F080E0089581E0673086
:1002A00038F080E0089580E0089580E0089581E0CE
:1002B00008951F93CF93DF93C82FD62F142F0E943A
:1002C0003101882309F4EFC0C23009F459C028F481
:1002D000CC2361F0C13079F1E6C0C43009F49AC092
:1002E00008F473C0C53009F4BAC0DDC0113081F024
:1002F00018F01230C1F0D7C020B181E090E002C008
:10030000880F991FDA95E2F78095822380B9CBC0D8
:1003100020B181E090E002C0880F991FDA95E2F7E2
:10032000822B80B9C0C0ED2FF0E0E05FFB4F8081F1
:1003300088608083B8C0113081F018F01230C1F0AD
:10034000B2C024B181E090E002C0880F991FDA9515
:10035000E2F78095822384B9A6C024B181E090E0C1
:1003600002C0880F991FDA95E2F7822B84B99BC0EF
:10037000ED2FF0E0E05DFB4F80818860808393C0CB
:10038000113081F018F01230C1F08DC028B181E039
:1003900090E002C0880F991FDA95E2F780958223DA
:1003A00088B981C028B181E090E002C0880F991F10
:1003B000DA95E2F7822B88B976C0ED2FF0E0E05BAA
:1003C000FB4F8081886080836EC0113081F018F00F
:1003D0001230C1F068C02CB181E090E002C0880FFB
:1003E000991FDA95E2F7809582238CB95CC02CB115
:1003F00081E090E002C0880F991FDA95E2F7822B26
:100400008CB951C0ED2FF0E0E059FB4F808188603E
:10041000808349C0113081F018F01230C1F043C020
:1004200020B381E090E002C0880F991FDA95E2F7CF
:100430008095822380BB37C020B381E090E002C06A
:10044000880F991FDA95E2F7822B80BB2CC0ED2F25
:10045000F0E0E057FB4F80818860808324C011303A
:1004600081F018F01230C1F01EC024B381E090E09A
:1004700002C0880F991FDA95E2F78095822384BB2A
:1004800012C024B381E090E002C0880F991FDA9572
:10049000E2F7822B84BB07C0ED2FF0E0E055FB4F65
:1004A000808188608083DF91CF911F9108951F9391
:1004B000CF93DF93182FD62FC42F0E9431018823AA
:1004C00009F46FC0123071F128F4112359F0113082
:1004D000C9F067C0143009F445C0A0F1153009F423
:1004E00051C05FC0ED2FF0E0E05FFB4FC13021F461
:1004F00080818860808355C0C11153C08081877F0F
:1005000080834FC0ED2FF0E0E05DFB4FC13021F460
:1005100080818860808345C0C11143C08081877F0E
:1005200080833FC0ED2FF0E0E05BFB4FC13021F452
:1005300080818860808335C0C11133C08081877F0E
:1005400080832FC0ED2FF0E0E059FB4FC13021F444
:1005500080818860808325C0C11123C08081877F0E
:1005600080831FC0ED2FF0E0E057FB4FC13021F436
:1005700080818860808315C0C11113C08081877F0E
:1005800080830FC0ED2FF0E0E055FB4FC13021F428
:1005900080818860808305C0C11103C08081877F0E
:1005A0008083DF91CF911F910895CF93DF93C82F60
:1005B000D62F40E00E94590140E06D2F8C2F0E9401
:1005C0005702DF91CF910895089508951F93CF9317
:1005D000DF93C82FD62F142F0E943101811110C034
:1005E00011110EC08DEF8C0F823030F0C53041F408
:1005F0008EEF8D0F843020F46D2F8C2F0E94D5024A
:10060000DF91CF911F9108951F93CF93DF93C82F50
:10061000D62F142F0E943101882309F4A7C0C230BD
:1006200009F441C028F4CC2361F0C13019F19EC017
:10063000C43009F46AC008F44FC0C53009F47EC064
:1006400095C0112359F021B181E090E002C0880FDC
:10065000991FDA95E2F7822B81B988C021B181E038
:1006600090E002C0880F991FDA95E2F78095822307
:1006700081B97CC0112359F025B181E090E002C01E
:10068000880F991FDA95E2F7822B85B96FC025B1E3
:1006900081E090E002C0880F991FDA95E2F780951B
:1006A000822385B963C0112359F029B181E090E01C
:1006B00002C0880F991FDA95E2F7822B89B956C0DC
:1006C00029B181E090E002C0880F991FDA95E2F726
:1006D0008095822389B94AC0112359F02DB181E058
:1006E00090E002C0880F991FDA95E2F7822B8DB94E
:1006F0003DC02DB181E090E002C0880F991FDA95CE
:10070000E2F7809582238DB931C0112359F021B3CE
:1007100081E090E002C0880F991FDA95E2F7822B02
:1007200081BB24C021B381E090E002C0880F991FF3
:10073000DA95E2F78095822381BB18C0112359F026
:1007400025B381E090E002C0880F991FDA95E2F7A7
:10075000822B85BB0BC025B381E090E002C0880FDF
:10076000991FDA95E2F78095822385BBDF91CF91BF
:100770001F9108958F929F92AF92BF92EF92FF9236
:100780000F931F93CF93DF93CDB7DEB76297CDBFA3
:10079000DEBF4B015C0182E1EFEEFEE4DE0111966B
:1007A00001900D928A95E1F720E030E040E452E4B8
:1007B000C501B4010E942E050E9411066A8B8E01AC
:1007C0000F5F1F4F7E0183E1E80EF11CF80181915C
:1007D0008F010E9425050E151F05C1F78EE20E94AC
:1007E0002505C501B4010E941106072E000C880BD7
:1007F000990B0E9449069B01AC01C501B4010E94FE
:100800002D0520E030E040E251E40E94F9060E940C
:10081000110680E3860F0E94250520E030E040E2CB
:1008200051E4C501B4010E94F9064B015C010E942C
:100830001106072E000C880B990B0E9449069B019C
:10084000AC01C501B4010E942D0520E030E040E27A
:1008500051E40E94F90620E030E040E452E40E94B6
:100860002E050E941806862F0E9425056296CDBF90
:10087000DEBFDF91CF911F910F91FF90EF90BF905E
:10088000AF909F908F900895CF93DF93CDB7DEB751
:100890002697CDBFDEBF19821A821B821C821D8261
:1008A0001E820E94640087ED9EE40E949D0080ED00
:1008B0009EE40E94670080E00E948E0060E080E07D
:1008C0000E948B0080E00E94910011E00E941D05B3
:1008D0008033E1F780E00E949A0080E00E94970058
:1008E0008130D9F780E00E94940089839A836981DE
:1008F0007A8180E090E00E9447062EEA37E441E5E5
:1009000050E40E94F90620E030EC4FE754E40E94E6
:100910009F056B837C838D839E836B817C818D811E
:100920009E810E94BA036B817C818D819E8120E033
:1009300030E040E250E40E949A05880F880B482F6F
:100940004123412765E0812F0E94D800BFCFE0E01E
:10095000F6E08081816080830895E0E0F6E08683A0
:1009600081E08087089580910B06817008958091C1
:10097000100690911106089580E0089580E0089592
:1009800080E00895E0E1F4E0808188608193E831BF
:1009900084E0F807C9F7E0E3F4E0808188608193A0
:1009A000E83384E0F807C9F7E0E5F4E08081886087
:1009B0008193E83584E0F807C9F7E0E7F4E0808147
:1009C00088608193E83784E0F807C9F7E0E9F4E04C
:1009D000808188608193E83984E0F807C9F7E0EB0B
:1009E000F4E0808188608193E83B84E0F807C9F7F0
:1009F00008954198E1E5F4E08081877F8083409A03
:100A000048980E94130508950E94C2040E94BE04E3
:100A10000E94F9040E94C0040E9411050E94BC04B7
:100A2000089580E00895E0E2F8E08DE695E08087A3
:100A3000918780EC868380E00895E0E2F8E084818D
:100A40008823ECF7809120080895E0E2F8E0948193
:100A500095FFFDCF8093220808955058BB27AA2701
:100A60000E9445050C94BF060E94B10638F00E9412
:100A7000B80620F039F49F3F19F426F40C94AE0622
:100A80000EF4E095E7FB0C94A806E92F0E94D0062F
:100A900058F3BA17620773078407950720F079F4B3
:100AA000A6F50C94F2060EF4E0950B2EBA2FA02DAD
:100AB0000B01B90190010C01CA01A0011124FF270B
:100AC000591B99F0593F50F4503E68F11A16F04006
:100AD000A22F232F342F4427585FF3CF4695379505
:100AE0002795A795F0405395C9F77EF41F16BA0BCA
:100AF000620B730B840BBAF09150A1F0FF0FBB1F78
:100B0000661F771F881FC2F70EC0BA0F621F731FC0
:100B1000841F48F4879577956795B795F7959E3F1D
:100B200008F0B0CF9395880F08F09927EE0F9795AE
:100B3000879508950E94840608F481E008950E9434
:100B4000B3050C94BF060E94B80658F00E94B10687
:100B500040F029F45F3F29F00C94A80651110C9441
:100B6000F3060C94AE060E94D00668F39923B1F305
:100B7000552391F3951B550BBB27AA2762177307C3
:100B8000840738F09F5F5F4F220F331F441FAA1F57
:100B9000A9F335D00E2E3AF0E0E832D09150504013
:100BA000E695001CCAF72BD0FE2F29D0660F771FC1
:100BB000881FBB1F261737074807AB07B0E809F0A7
:100BC000BB0B802DBF01FF2793585F4F3AF09E3F2C
:100BD000510578F00C94A8060C94F3065F3FE4F3FB
:100BE000983ED4F3869577956795B795F7959F5F6F
:100BF000C9F7880F911D9695879597F90895E1E0BB
:100C0000660F771F881FBB1F621773078407BA0719
:100C100020F0621B730B840BBA0BEE1F88F7E09574
:100C200008950E9418066894B1110C94F306089573
:100C30000E94D80688F09F5798F0B92F9927B7518E
:100C4000B0F0E1F0660F771F881F991F1AF0BA9570
:100C5000C9F714C0B13091F00E94F206B1E00895D6
:100C60000C94F206672F782F8827B85F39F0B93FC8
:100C7000CCF3869577956795B395D9F73EF4909523
:100C80008095709561957F4F8F4F9F4F0895E894A1
:100C900009C097FB3EF490958095709561957F4FC4
:100CA0008F4F9F4F9923A9F0F92F96E9BB27939572
:100CB000F695879577956795B795F111F8CFFAF482
:100CC000BB0F11F460FF1BC06F5F7F4F8F4F9F4FB3
:100CD00016C0882311F096E911C0772321F09EE811
:100CE000872F762F05C0662371F096E8862F70E077
:100CF00060E02AF09A95660F771F881FDAF7880F51
:100D00009695879597F90895990F0008550FAA0BA6
:100D1000E0E8FEEF16161706E807F907C0F012160E
:100D20001306E407F50798F0621B730B840B950B11
:100D300039F40A2661F0232B242B252B21F4089566
:100D40000A2609F4A140A6958FEF811D811D089503
:100D500097F99F6780E870E060E008959FEF80EC6E
:100D6000089500240A941616170618060906089511
:100D700000240A9412161306140605060895092E77
:100D80000394000C11F4882352F0BB0F40F4BF2BE6
:100D900011F460FF04C06F5F7F4F8F4F9F4F089526
:100DA00057FD9058440F551F59F05F3F71F047951C
:100DB000880F97FB991F61F09F3F79F08795089501
:100DC000121613061406551FF2CF4695F1DF08C020
:100DD000161617061806991FF1CF8695710561053D
:100DE00008940895E894BB2766277727CB0197F9E5
:100DF00008950E940C070C94BF060E94B10638F0BB
:100E00000E94B80620F0952311F00C94A8060C94CB
:100E1000AE0611240C94F3060E94D00670F3959F41
:100E2000C1F3950F50E0551F629FF001729FBB27E1
:100E3000F00DB11D639FAA27F00DB11DAA1F649F7D
:100E40006627B00DA11D661F829F2227B00DA11D30
:100E5000621F739FB00DA11D621F839FA00D611DB6
:100E6000221F749F3327A00D611D231F849F600DD7
:100E7000211D822F762F6A2F11249F5750409AF000
:100E8000F1F088234AF0EE0FFF1FBB1F661F771F8C
:100E9000881F91505040A9F79E3F510580F00C9457
:100EA000A8060C94F3065F3FE4F3983ED4F38695CE
:100EB00077956795B795F795E7959F5FC1F7FE2BF7
:100EC000880F911D9695879597F90895F894FFCF0F
:100ED000000055550100100102000400010000014E
:100EE0000501040000000003000300000000004DA5
:100EF0006561737572656420566F6C746167653ADD
:010F000000F0
:00000001FF
