:100000000C9450000C9462000C9462000C946200FA
:100010000C9462000C9462000C9462000C946200D8
:100020000C9462000C9462000C9462000C946200C8
:100030000C9462000C9462000C9462000C946200B8
:100040000C9462000C9462000C9462000C946200A8
:100050000C9462000C9462000C9462000C94620098
:100060000C9462000C9462000C9462000C94620088
:100070000C9462000C9462000C9462000C94620078
:100080000C9462000C9462000C9462000C94620068
:100090000C9462000C9462000C9462000C94620058
:1000A00011241FBECFEFCDBFDFE3DEBF28E2A0E00B
:1000B000B8E201C01D92A030B207E1F70E94100122
:1000C0000C9434040C9400000C94CB01AF92BF92BA
:1000D000CF92DF92EF92FF920F931F93CF93DF9314
:1000E000CDB7DEB76297CDBFDEBF6B017C0182E189
:1000F000ECE6F8E4DE01119601900D928A95E1F7A5
:100100008E010F5F1F4F5E0182E1A80EB11CF80146
:1001100081918F010E94F4010A151B05C1F720E0AF
:1001200030E040E452E4C701B6010E94FC010E94A5
:10013000DF02862F0E94F4018EE20E94F401C701C3
:10014000B6010E94DF02072E000C880B990B0E945B
:1001500017039B01AC01C701B6010E94FB0120E01F
:1001600030E040E251E40E94C7030E94DF0280E3D6
:10017000860F0E94F40120E030E040E251E4C70124
:10018000B6010E94C7036B017C010E94DF02072EAB
:10019000000C880B990B0E9417039B01AC01C7014F
:1001A000B6010E94FB0120E030E040E251E40E94F1
:1001B000C70320E030E040E452E40E94FC010E94CA
:1001C000E602862F6296CDBFDEBFDF91CF911F91F1
:1001D0000F91FF90EF90DF90CF90BF90AF900C9475
:1001E000F401E0EEF5E08281259AA5E3B4E09C916C
:1001F000977F9C932D98409AA0E5B4E09C91977FBF
:100200009C934198A1E5B4E09C91977F9C93609862
:10021000A0E7B4E09C91977F9C938B7F82830895A5
:10022000CF93DF93CDB7DEB72697CDBFDEBF1D825C
:100230001E8219821A821B821C820E9464000E9404
:10024000F1000E9479010E946B0181E08093160603
:100250000E9473010E94E7010E94D7010E94E10100
:100260000E94ED018033E1F780E00E947F010E944F
:1002700085018823E1F30E9489018D839E836D812E
:100280007E8180E090E00E94150325E83BEE41E589
:1002900050E40E94C70320E030EC4FE754E40E9492
:1002A0006D0269837A838B839C8369817A818B81D8
:1002B0009C810E94660069817A818B819C8120E00B
:1002C00030E040E250E40E94680287FD02C02D9AAF
:1002D000C7CF2D98C5CFE0E0F6E081E1828381E0D1
:1002E000808380E00895E0E0F6E080818160808393
:1002F0000895E0E0F6E080818E7F80830895E0E05D
:10030000F6E0868381E08087089580910B068170F6
:1003100008958091100690911106089580E0089547
:1003200080E0089580E00895E0E1F4E08081886055
:100330008193E83184E0F807C9F7E0E3F4E08081D5
:1003400088608193E83384E0F807C9F7E0E5F4E0DA
:10035000808188608193E83584E0F807C9F7E0E799
:10036000F4E0808188608193E83784E0F807C9F77A
:10037000E0E9F4E0808188608193E83984E0F8075F
:10038000C9F7E0EBF4E0808188608193E83B84E08A
:10039000F807C9F708950E9494010E9490010E94F5
:1003A00092010E94D5010C948E0180E00895E0E254
:1003B000F8E08DE695E08087918780EC868380E089
:1003C0000895E0E2F8E08681806C86830895E0E29B
:1003D000F8E086818F73868308958091240887FFD3
:1003E000FCCF8091200808959091240895FFFCCFC0
:1003F0008093220808955058BB27AA270E94130211
:100400000C948D030E947F0338F00E94860320F035
:1004100039F49F3F19F426F40C947C030EF4E09514
:10042000E7FB0C947603E92F0E949E0358F3BA175A
:10043000620773078407950720F079F4A6F50C94FA
:10044000C0030EF4E0950B2EBA2FA02D0B01B901BD
:1004500090010C01CA01A0011124FF27591B99F03A
:10046000593F50F4503E68F11A16F040A22F232F46
:10047000342F4427585FF3CF469537952795A79596
:10048000F0405395C9F77EF41F16BA0B620B730B3D
:10049000840BBAF09150A1F0FF0FBB1F661F771FAE
:1004A000881FC2F70EC0BA0F621F731F841F48F463
:1004B000879577956795B795F7959E3F08F0B0CFEC
:1004C0009395880F08F09927EE0F979587950895D3
:1004D0000E94520308F481E008950E9481020C9466
:1004E0008D030E94860358F00E947F0340F029F498
:1004F0005F3F29F00C94760351110C94C1030C94C6
:100500007C030E949E0368F39923B1F3552391F372
:10051000951B550BBB27AA2762177307840738F072
:100520009F5F5F4F220F331F441FAA1FA9F335D0CF
:100530000E2E3AF0E0E832D091505040E695001C83
:10054000CAF72BD0FE2F29D0660F771F881FBB1F3D
:10055000261737074807AB07B0E809F0BB0B802D1B
:10056000BF01FF2793585F4F3AF09E3F510578F047
:100570000C9476030C94C1035F3FE4F3983ED4F3EC
:10058000869577956795B795F7959F5FC9F7880F1B
:10059000911D9695879597F90895E1E0660F771F6D
:1005A000881FBB1F621773078407BA0720F0621BFE
:1005B000730B840BBA0BEE1F88F7E09508950E9429
:1005C000E6026894B1110C94C10308950E94A60339
:1005D00088F09F5798F0B92F9927B751B0F0E1F004
:1005E000660F771F881F991F1AF0BA95C9F714C0B4
:1005F000B13091F00E94C003B1E008950C94C003A3
:10060000672F782F8827B85F39F0B93FCCF38695EC
:1006100077956795B395D9F73EF490958095709549
:1006200061957F4F8F4F9F4F0895E89409C097FBC6
:100630003EF490958095709561957F4F8F4F9F4FB9
:100640009923A9F0F92F96E9BB279395F6958795FD
:1006500077956795B795F111F8CFFAF4BB0F11F4C0
:1006600060FF1BC06F5F7F4F8F4F9F4F16C0882367
:1006700011F096E911C0772321F09EE8872F762F9D
:1006800005C0662371F096E8862F70E060E02AF0DE
:100690009A95660F771F881FDAF7880F96958795CA
:1006A00097F90895990F0008550FAA0BE0E8FEEF9F
:1006B00016161706E807F907C0F012161306E40726
:1006C000F50798F0621B730B840B950B39F40A261F
:1006D00061F0232B242B252B21F408950A2609F4FD
:1006E000A140A6958FEF811D811D089597F99F6701
:1006F00080E870E060E008959FEF80EC08950024AA
:100700000A941616170618060906089500240A9476
:1007100012161306140605060895092E0394000CFC
:1007200011F4882352F0BB0F40F4BF2B11F460FF8B
:1007300004C06F5F7F4F8F4F9F4F089557FD9058B4
:10074000440F551F59F05F3F71F04795880F97FB95
:10075000991F61F09F3F79F087950895121613064F
:100760001406551FF2CF4695F1DF08C0161617067E
:100770001806991FF1CF86957105610508940895B3
:10078000E894BB2766277727CB0197F908950E9445
:10079000DA030C948D030E947F0338F00E948603D5
:1007A00020F0952311F00C9476030C947C03112413
:1007B0000C94C1030E949E0370F3959FC1F3950FA3
:1007C00050E0551F629FF001729FBB27F00DB11DD5
:1007D000639FAA27F00DB11DAA1F649F6627B00D65
:1007E000A11D661F829F2227B00DA11D621F739F4E
:1007F000B00DA11D621F839FA00D611D221F749F5C
:100800003327A00D611D231F849F600D211D822FA2
:10081000762F6A2F11249F5750409AF0F1F08823C9
:100820004AF0EE0FFF1FBB1F661F771F881F9150F6
:100830005040A9F79E3F510580F00C9476030C942C
:10084000C1035F3FE4F3983ED4F3869577956795AF
:10085000B795F795E7959F5FC1F7FE2B880F911D20
:0C0860009695879597F90895F894FFCFBE
:10086C004D6561737572656420566F6C7461676554
:02087C003A0040
:00000001FF
