:100000000C9450000C9462000C9462000C946200FA
:100010000C9462000C9462000C9462000C946200D8
:100020000C9462000C9462000C9462000C946200C8
:100030000C9462000C9462000C9462000C946200B8
:100040000C9462000C9462000C9462000C946200A8
:100050000C9462000C9462000C9462000C94620098
:100060000C9462000C9462000C9462000C94620088
:100070000C9462000C9462000C9462000C94620078
:100080000C9462000C9462000C9462000C94620068
:100090000C9462000C9462000C9462000C94620058
:1000A00011241FBECFEFCDBFDFE3DEBF28E2A0E00B
:1000B000B8E201C01D92A030B207E1F70E945103DF
:1000C0000C94C0070C940000CF93DF93CDB7DEB73C
:1000D0000E940A050000DF91CF910895CF93DF932E
:1000E00000D000D0CDB7DEB78B836C838B81882F97
:1000F00090E0805D9B4F89839A838C81813059F495
:1001000089819A81FC018081282F286089819A81C8
:10011000FC0120830DC08C81882351F489819A8150
:10012000FC018081282F277F89819A81FC0120830F
:1001300000002496CDBFDEBFDF91CF910895CF930D
:10014000DF9300D0CDB7DEB789836A838A81882F99
:1001500090E081309105E1F08230910571F1892BB9
:1001600009F03BC084E090E024E030E0F901208118
:10017000622F2981422F50E021E030E002C0220F9F
:10018000331F4A95E2F720952623FC01208325C0E2
:1001900084E090E024E030E0F9012081622F2981A1
:1001A000422F50E021E030E002C0220F331F4A9579
:1001B000E2F7262BFC01208310C08981882F90E074
:1001C000805D9B4F2981222F30E0205D3B4FF9015C
:1001D00020812860FC012083000000000F900F9018
:1001E000DF91CF910895CF93DF9300D0CDB7DEB7E5
:1001F00089836A838A818823A9F084E090E024E0DF
:1002000030E0F9012181622F2981422F50E021E065
:1002100030E002C0220F331F4A95E2F7262BFC0183
:10022000218315C084E090E024E030E0F9012181D1
:10023000622F2981422F50E021E030E002C0220FDE
:10024000331F4A95E2F720952623FC012183000005
:100250000F900F90DF91CF910895CF93DF9300D04F
:1002600000D0CDB7DEB78B836C838B81882F90E075
:10027000805B9B4F89839A838C81813059F489817B
:100280009A81FC018081282F286089819A81FC0154
:1002900020830DC08C81882351F489819A81FC01CF
:1002A0008081282F277F89819A81FC01208300008B
:1002B0002496CDBFDEBFDF91CF910895CF93DF931A
:1002C00000D0CDB7DEB789836A838A81882F90E01A
:1002D00081309105E1F08230910571F1892B09F0AF
:1002E0003BC088E090E028E030E0F9012081622FF7
:1002F0002981422F50E021E030E002C0220F331F5D
:100300004A95E2F720952623FC01208325C088E04A
:1003100090E028E030E0F9012081622F2981422F0E
:1003200050E021E030E002C0220F331F4A95E2F78F
:10033000262BFC01208310C08981882F90E0805BF0
:100340009B4F2981222F30E0205B3B4FF901208118
:100350002860FC012083000000000F900F90DF91C7
:10036000CF910895CF93DF9300D000D0CDB7DEB703
:100370008B836C838B81882F90E080599B4F89837E
:100380009A838C81813059F489819A81FC01808122
:10039000282F286089819A81FC0120830DC08C81DF
:1003A000882351F489819A81FC018081282F277F3D
:1003B00089819A81FC01208300002496CDBFDEBF95
:1003C000DF91CF910895CF93DF9300D0CDB7DEB703
:1003D00089836A838A81882F90E081309105E1F0DA
:1003E0008230910571F1892B09F03BC08CE090E0DF
:1003F0002CE030E0F9012081622F2981422F50E06A
:1004000021E030E002C0220F331F4A95E2F7209529
:100410002623FC01208325C08CE090E02CE030E016
:10042000F9012081622F2981422F50E021E030E044
:1004300002C0220F331F4A95E2F7262BFC012083CE
:1004400010C08981882F90E080599B4F2981222FED
:1004500030E020593B4FF90120812860FC012083C6
:10046000000000000F900F90DF91CF910895CF9280
:10047000DF92EF92FF92CF93DF93CDB7DEB767970E
:10048000CDBFDEBF6C8B7D8B8E8B9F8B82E1E4E8D2
:10049000FFE4DE01129601900D928A95E1F7198230
:1004A0000FC08981882F90E09E012E5F3F4F820F01
:1004B000931FFC0180810E946C0589818F5F898375
:1004C0008981813170F320E030E040E452E46C89AE
:1004D0007D898E899F890E948805DC01CB01BC0142
:1004E000CD010E946B06DC01CB010E946C058EE2FF
:1004F0000E946C056C897D898E899F890E946B069C
:10050000DC01CB01092E000CAA0BBB0BBC01CD01F9
:100510000E94A306DC01CB019C01AD016C897D89A1
:100520008E899F890E948705DC01CB0120E030E0A5
:1005300040E251E4BC01CD010E945307DC01CB0134
:10054000BC01CD010E946B06DC01CB01805D0E94E5
:100550006C0520E030E040E251E46C897D898E89B1
:100560009F890E945307DC01CB016C017D0120E0D3
:1005700030E040E251E46C897D898E899F890E9438
:100580005307DC01CB01BC01CD010E946B06DC01ED
:10059000CB01092E000CAA0BBB0BBC01CD010E94A4
:1005A000A306DC01CB019C01AD01C701B6010E948D
:1005B0008705DC01CB0120E030E040E251E4BC01E2
:1005C000CD010E945307DC01CB0120E030E040E484
:1005D00052E4BC01CD010E948805DC01CB01BC01C5
:1005E000CD010E947206DC01CB010E946C05000067
:1005F0006796CDBFDEBFDF91CF91FF90EF90DF9088
:10060000CF900895CF93DF931F92CDB7DEB780EEE2
:1006100095E0FC018281898361E085E00E949F0072
:1006200060E085E00E946E0060E085E00E94F300DB
:1006300061E080E00E945E0160E080E00E942D01A8
:1006400060E081E00E945E0160E081E00E942D0197
:1006500060E080E00E94E30160E080E00E94B2017F
:1006600089818B7F898380EE95E02981FC0122833B
:1006700000000F90DF91CF910895CF93DF93CDB716
:10068000DEB70E94F1030000DF91CF910895CF9370
:10069000DF93CDB7DEB70E9424050000DF91CF9134
:1006A0000895CF93DF93CDB7DEB72897CDBFDEBFD8
:1006B000198281E08A831B821C821D821E821F8216
:1006C00018868981882F90E08130910529F1823048
:1006D00091051CF4892B41F083C08230910521F1F2
:1006E000039709F45EC07CC00E9464000E9402036C
:1006F0000E9414040E943D0380E096E021E0FC018A
:10070000268B0E9403040E9449050E9447030E9411
:10071000380581E0898364C00E945A05803309F05E
:100720005EC082E089835BC080E00E9425040000F7
:100730000E943A04982F81E089278823C9F70E94F4
:100740004E048B839C838B819C81CC01A0E0B0E024
:10075000BC01CD010E94A106DC01CB0125E83BEEE6
:1007600041E550E4BC01CD010E945307DC01CB01FF
:1007700020E030EC4FE754E4BC01CD010E94F905C4
:10078000DC01CB018D839E83AF83B8878D819E81F1
:10079000AF81B885BC01CD010E94370283E0898317
:1007A0001FC08D819E81AF81B88520E030E040E29E
:1007B00050E4BC01CD010E94F405882314F41A8290
:1007C00002C081E08A8381E09A81992309F480E064
:1007D000682F85E00E94F30081E0898301C000005A
:1007E00070CFCF93DF93CDB7DEB780E096E021E105
:1007F000FC01228380E096E021E0FC01208380E080
:10080000DF91CF910895CF93DF93CDB7DEB780E02E
:1008100096E020E036E0F90120812160FC01208390
:100820000000DF91CF910895CF93DF93CDB7DEB76E
:1008300080E096E020E036E0F90120812E7FFC0187
:1008400020830000DF91CF910895CF93DF931F9213
:10085000CDB7DEB7898380E096E02981FC0126834D
:1008600080E096E021E0FC01208700000F90DF91FE
:10087000CF910895CF93DF93CDB7DEB780E096E0B8
:10088000FC018385882F90E08170992721E0892BD6
:1008900009F420E0822FDF91CF910895CF93DF9369
:1008A000CDB7DEB780E096E0FC0180899189DF91C9
:1008B000CF910895CF93DF93CDB7DEB780E0DF917E
:1008C000CF910895CF93DF93CDB7DEB780E0DF916E
:1008D000CF910895CF93DF93CDB7DEB780E0DF915E
:1008E000CF910895CF93DF93CDB7DEB72697CDBFD5
:1008F000DEBF198212C08981882F90E0805F9B4FF4
:100900002981222F30E0205F3B4FF90120812860B0
:10091000FC01208389818F5F89838981883058F326
:100920001A8212C08A81882F90E0805D9B4F2A81B5
:10093000222F30E0205D3B4FF90120812860FC012F
:1009400020838A818F5F8A838A81883058F31B8253
:1009500012C08B81882F90E0805B9B4F2B81222FD0
:1009600030E0205B3B4FF90120812860FC012083AF
:100970008B818F5F8B838B81883058F31C8212C0F0
:100980008C81882F90E080599B4F2C81222F30E062
:1009900020593B4FF90120812860FC0120838C8184
:1009A0008F5F8C838C81883058F31D8212C08D81BB
:1009B000882F90E080579B4F2D81222F30E02057C9
:1009C0003B4FF90120812860FC0120838D818F5FDE
:1009D0008D838D81883058F31E8212C08E81882FBE
:1009E00090E080559B4F2E81222F30E020553B4FC9
:1009F000F90120812860FC0120838E818F5F8E8326
:100A00008E81883058F300002696CDBFDEBFDF917F
:100A1000CF910895CF93DF93CDB7DEB70E947204D4
:100A20000E9462040E946A040E941C050E945A04EB
:100A30000000DF91CF910895CF93DF93CDB7DEB75C
:100A400080E0DF91CF910895CF93DF93CDB7DEB7EC
:100A500080E298E02DE635E0FC012087318780E2D6
:100A600098E020ECFC01268380E0DF91CF9108958F
:100A7000CF93DF93CDB7DEB780E298E020E238E095
:100A8000F9012681206CFC0126830000DF91CF91C3
:100A90000895CF93DF93CDB7DEB780E298E020E2F0
:100AA00038E0F90126812F73FC0126830000DF91D5
:100AB000CF910895CF93DF93CDB7DEB7000080E2EA
:100AC00098E0FC0184818823D4F780E298E0FC015F
:100AD0008081DF91CF910895CF93DF931F92CDB79F
:100AE000DEB78983000080E298E0FC018481882FD2
:100AF00090E080729927892BB1F380E298E02981F8
:100B0000FC01228300000F90DF91CF91089550588F
:100B1000BB27AA270E949F050C9419070E940B0768
:100B200038F00E94120720F039F49F3F19F426F4A0
:100B30000C9408070EF4E095E7FB0C940207E92FEC
:100B40000E942A0758F3BA176207730784079507AC
:100B500020F079F4A6F50C944C070EF4E0950B2EDA
:100B6000BA2FA02D0B01B90190010C01CA01A001FF
:100B70001124FF27591B99F0593F50F4503E68F15A
:100B80001A16F040A22F232F342F4427585FF3CF9B
:100B9000469537952795A795F0405395C9F77EF46C
:100BA0001F16BA0B620B730B840BBAF09150A1F0B5
:100BB000FF0FBB1F661F771F881FC2F70EC0BA0F3B
:100BC000621F731F841F48F4879577956795B795C3
:100BD000F7959E3F08F0B0CF9395880F08F09927BE
:100BE000EE0F9795879508950E94DE0608F481E040
:100BF00008950E940D060C9419070E94120758F0E0
:100C00000E940B0740F029F45F3F29F00C94020783
:100C100051110C944D070C9408070E942A0768F3A1
:100C20009923B1F3552391F3951B550BBB27AA27A5
:100C300062177307840738F09F5F5F4F220F331FDF
:100C4000441FAA1FA9F335D00E2E3AF0E0E832D0A7
:100C500091505040E695001CCAF72BD0FE2F29D0AA
:100C6000660F771F881FBB1F261737074807AB077C
:100C7000B0E809F0BB0B802DBF01FF2793585F4FF1
:100C80003AF09E3F510578F00C9402070C944D0702
:100C90005F3FE4F3983ED4F3869577956795B795D3
:100CA000F7959F5FC9F7880F911D9695879597F9DE
:100CB0000895E1E0660F771F881FBB1F6217730757
:100CC0008407BA0720F0621B730B840BBA0BEE1F6C
:100CD00088F7E09508950E9472066894B1110C940B
:100CE0004D0708950E94320788F09F5798F0B92F5A
:100CF0009927B751B0F0E1F0660F771F881F991F51
:100D00001AF0BA95C9F714C0B13091F00E944C079F
:100D1000B1E008950C944C07672F782F8827B85FAF
:100D200039F0B93FCCF3869577956795B395D9F7A8
:100D30003EF490958095709561957F4F8F4F9F4FB2
:100D40000895E89409C097FB3EF4909580957095BE
:100D500061957F4F8F4F9F4F9923A9F0F92F96E907
:100D6000BB279395F695879577956795B795F1117C
:100D7000F8CFFAF4BB0F11F460FF1BC06F5F7F4F19
:100D80008F4F9F4F16C0882311F096E911C077232B
:100D900021F09EE8872F762F05C0662371F096E834
:100DA000862F70E060E02AF09A95660F771F881F03
:100DB000DAF7880F9695879597F90895990F0008A7
:100DC000550FAA0BE0E8FEEF16161706E807F9071D
:100DD000C0F012161306E407F50798F0621B730BB8
:100DE000840B950B39F40A2661F0232B242B252B39
:100DF00021F408950A2609F4A140A6958FEF811DDC
:100E0000811D089597F99F6780E870E060E008957C
:100E10009FEF80EC089500240A9416161706180612
:100E20000906089500240A941216130614060506EE
:100E30000895092E0394000C11F4882352F0BB0F7F
:100E400040F4BF2B11F460FF04C06F5F7F4F8F4FE2
:100E50009F4F089557FD9058440F551F59F05F3F1D
:100E600071F04795880F97FB991F61F09F3F79F0CC
:100E700087950895121613061406551FF2CF46954E
:100E8000F1DF08C0161617061806991FF1CF8695D0
:100E90007105610508940895E894BB2766277727B4
:100EA000CB0197F908950E9466070C9419070E94D8
:100EB0000B0738F00E94120720F0952311F00C94D4
:100EC00002070C94080711240C944D070E942A076E
:100ED00070F3959FC1F3950F50E0551F629FF0018D
:100EE000729FBB27F00DB11D639FAA27F00DB11DA6
:100EF000AA1F649F6627B00DA11D661F829F22272F
:100F0000B00DA11D621F739FB00DA11D621F839FB5
:100F1000A00D611D221F749F3327A00D611D231F8B
:100F2000849F600D211D822F762F6A2F11249F57D9
:100F300050409AF0F1F088234AF0EE0FFF1FBB1FDC
:100F4000661F771F881F91505040A9F79E3F51059B
:100F500080F00C9402070C944D075F3FE4F3983E39
:100F6000D4F3869577956795B795F795E7959F5F45
:100F7000C1F7FE2B880F911D9695879597F90895D7
:040F8000F894FFCF13
:100F84004D6561737572656420566F6C7461676535
:020F94003A0021
:00000001FF
