:100000000C9450000C9462000C9462000C946200FA
:100010000C9462000C9462000C9462000C946200D8
:100020000C9462000C9462000C9462000C946200C8
:100030000C9462000C9462000C9462000C946200B8
:100040000C9462000C9462000C9462000C946200A8
:100050000C9462000C9462000C9462000C94620098
:100060000C9462000C9462000C9462000C94620088
:100070000C9462000C9462000C9462000C94620078
:100080000C9462000C9462000C9462000C94620068
:100090000C9462000C9462000C9462000C94620058
:1000A00011241FBECFEFCDBFDFE3DEBF28E2A0E00B
:1000B000B8E201C01D92A030B207E1F70E946600CD
:1000C0000C9479010C9400000C946D01CF93DF9394
:1000D000CDB7DEB72697CDBFDEBF1D821E82198247
:1000E0001A821B821C820E946400FFCF80E0089568
:1000F00080E0089580E00895E0E1F4E08081886088
:100100008083E1E1F4E0808188608083E2E1F4E0D3
:10011000808188608083E3E1F4E08081886080836F
:10012000E4E1F4E0808188608083E5E1F4E08081AF
:1001300088608083E6E1F4E0808188608083E7E185
:10014000F4E0808188608083E0E3F4E0808188606F
:100150008083E1E3F4E0808188608083E2E3F4E07F
:10016000808188608083E3E3F4E08081886080831D
:10017000E4E3F4E0808188608083E5E3F4E080815B
:1001800088608083E6E3F4E0808188608083E7E331
:10019000F4E0808188608083E0E5F4E0808188601D
:1001A0008083E1E5F4E0808188608083E2E5F4E02B
:1001B000808188608083E3E5F4E0808188608083CB
:1001C000E4E5F4E0808188608083E5E5F4E0808107
:1001D00088608083E6E5F4E0808188608083E7E5DD
:1001E000F4E0808188608083E0E7F4E080818860CB
:1001F0008083E1E7F4E0808188608083E2E7F4E0D7
:10020000808188608083E3E7F4E080818860808378
:10021000E4E7F4E0808188608083E5E7F4E08081B2
:1002200088608083E6E7F4E0808188608083E7E788
:10023000F4E0808188608083E0E9F4E08081886078
:100240008083E1E9F4E0808188608083E2E9F4E082
:10025000808188608083E3E9F4E080818860808326
:10026000E4E9F4E0808188608083E5E9F4E080815E
:1002700088608083E6E9F4E0808188608083E7E934
:10028000F4E0808188608083E0EBF4E08081886026
:100290008083E1EBF4E0808188608083E2EBF4E02E
:1002A000808188608083E3EBF4E0808188608083D4
:1002B000E4EBF4E0808188608083E5EBF4E080810A
:1002C00088608083E6EBF4E0808188608083E7EBE0
:1002D000F4E080818860808308950E947C000E9401
:1002E00078000E947A000E9477010C94760080E0EA
:0602F0000895F894FFCF11
:00000001FF
