:0200000470008A
:10000000464346420004015600000000010303007D
:1000100000000000000000000000000000000000E0
:1000200000000000000000000000000000000000D0
:1000300000000000000000000000000000000000C0
:1000400000000000000406000000000000000000A6
:100050000000800000000000000000000000000020
:100060000000000000000000000000000000000090
:100070000000000000000000000000000000000080
:10008000EB04180A063204260000000000000000FD
:100090000000000000000000000000000000000060
:1000A0000000000000000000000000000000000050
:1000B0000000000000000000000000000000000040
:1000C0000000000000000000000000000000000030
:1000D0000000000000000000000000000000000020
:1000E0000000000000000000000000000000000010
:1000F0000000000000000000000000000000000000
:1001000000000000000000000000000000000000EF
:1001100000000000000000000000000000000000DF
:1001200000000000000000000000000000000000CF
:1001300000000000000000000000000000000000BF
:1001400000000000000000000000000000000000AF
:10015000000000000000000000000000000000009F
:10016000000000000000000000000000000000008F
:10017000000000000000000000000000000000007F
:10018000000000000000000000000000000000006F
:10019000000000000000000000000000000000005F
:1001A000000000000000000000000000000000004F
:1001B000000000000000000000000000000000003F
:1001C000000100000010000000000000000000001E
:1001D000000004000000000000000000000000001B
:1001E000000000000000000000000000000000000F
:1001F00000000000000000000000000000000000FF
:10020000FFFFFFFFFFFFFFFFFFFFFFFFFFFFFFFFFE
:10021000FFFFFFFFFFFFFFFFFFFFFFFFFFFFFFFFEE
:10100000D10020410020007000000000304200703C
:1010100020100070001000700000000000000000B0
:10102000000000700000400000000000FFFFFFFF14
:10103000FFFFFFFFFFFFFFFFFFFFFFFFFFFFFFFFC0
:10104000FFFFFFFFFFFFFFFFFFFFFFFFFFFFFFFFB0
:10105000FFFFFFFFFFFFFFFFFFFFFFFFFFFFFFFFA0
:10106000FFFFFFFFFFFFFFFFFFFFFFFFFFFFFFFF90
:10200000000002200923007005240070493D007083
:1020100000000000000000000000000000000000C0
:10202000000000000000000000000000112400700B
:102030000000000000000000172400701D24007044
:10204000E1350070ED350070F9350070053600702F
:10205000113600701D36007029360070353600705C
:10206000413600704D36007059360070653600708C
:10207000713600707D3600708936007095360070BC
:10208000A1360070AD360070B9360070C5360070EC
:10209000D1360070DD360070E9360070F53600701C
:1020A000013700700D370070193700702537007048
:1020B000313700703D370070493700705537007078
:1020C000613700706D3700707937007085370070A8
:1020D000913700709D370070A9370070B5370070D8
:1020E000C1370070CD370070D9370070E537007008
:1020F000F1370070FD370070093800701538007036
:10210000213800702D380070393800704538007063
:10211000513800705D380070693800707538007093
:10212000813800708D38007099380070A5380070C3
:10213000B1380070BD380070C9380070D5380070F3
:10214000E1380070ED380070F93800700539007022
:10215000113900701D39007029390070353900704F
:10216000413900704D39007059390070653900707F
:10217000713900707D3900708939007095390070AF
:10218000A1390070AD390070B9390070C5390070DF
:10219000D1390070DD390070E9390070F53900700F
:1021A000013A00700D3A0070193A0070253A00703B
:1021B000313A00703D3A0070493A0070553A00706B
:1021C000613A00706D3A0070793A0070853A00709B
:1021D000913A00709D3A0070A93A0070B53A0070CB
:1021E000C13A0070CD3A0070D93A0070E53A0070FB
:1021F000F13A0070FD3A0070093B0070153B007029
:10220000213B00702D3B0070393B0070453B007056
:10221000513B00705D3B0070693B0070753B007086
:10222000813B00708D3B0070993B0070A53B0070B6
:10223000B13B0070BD3B0070C93B0070D53B0070E6
:10224000E13B0070ED3B0070F93B0070053C007015
:10225000113C00701D3C0070293C0070353C007042
:10226000413C00704D3C0070593C0070653C007072
:10227000713C00707D3C0070893C0070953C0070A2
:10228000A13C0070AD3C0070B93C0070C53C0070D2
:10229000D13C0070DD3C0070E93C0070F53C007002
:1022A000013D00700D3D0070193D0070253D00702E
:1022B000313D00703D3D0070544200700000002030
:1022C0000400000054420070000000000000000004
:1022D00054420070000020200000000054420070B2
:1022E000000000800000000004000020E800000062
:1022F000000000000000000000002020000000009E
:10230000000000800000000080B584B000AF72B60D
:1023100000F0B2FE184BFB6013E0FB681A1DFA6078
:102320001B683B60FB681A1DFA601B68BB60FB689A
:102330001A1DFA601B687B607A68B968386800F01B
:1023400021F8FB680D4A9342E7D30DE0FB681A1DA4
:10235000FA601B68BB60FB681A1DFA601B687B6033
:102360007968B86800F031F8FB68054A9342EDD30C
:1023700062B601F03CFDFEE7B8220070E822007072
:102380000823007080B489B000AFF860B9607A604B
:10239000BB68FB61FB68BB6100237B610AE0BA6933
:1023A000131DBB61FB69191DF96112681A607B6915
:1023B00004337B617A697B689A42F0D300BF00BF27
:1023C0002437BD465DF8047B704780B485B000AF0C
:1023D000786039607B68FB600023BB6007E0FB68C6
:1023E0001A1DFA6000221A60BB680433BB60BA6829
:1023F0003B689A42F3D300BF00BF1437BD465DF877
:10240000047B704780B400AFFEE780B400AFFEE706
:1024100080B400AFFEE780B400AFFEE780B400AF49
:10242000FEE780B400AFFEE780B582B000AF0023C6
:10243000FB710123BB710023BB804FF000033B60A5
:10244000FB79032B1AD801A252F823F05D24007007
:102450006B240070712400707724007000F0A4FADF
:1024600000F084FE0123FB7109E00223FB7106E00A
:102470000323FB7103E00123FB7100E000BFDFE7F2
:1024800080B483B000AF0346FB71124B4FF0804223
:10249000C3F8582100BF0F4BD3F8703203F48033D8
:1024A000002BF8D00B4B4FF48032C3F8542100BFFF
:1024B000084BD3F8503103F40043002BF8D0054B00
:1024C0004FF48032C3F8582100BF0C37BD465DF889
:1024D000047B704700800D4080B483B000AF03469A
:1024E000FB71FB79002B04D1074B1022C3F8742237
:1024F00003E0054B1022C3F8782200BF0C37BD461D
:102500005DF8047B704700BF00800D4080B400AFD1
:10251000064BD3F87032054A43F00103C2F870321B
:1025200000BFBD465DF8047B704700BF00800D40D2
:1025300080B483B000AF7860154B1B6823F4E032A1
:102540007B681B799B039BB21343114A43F480338E
:1025500013600F4B1A680F4B13407A68126802F031
:102560007F0213430A4A43F40053136000BF084B31
:102570001B68002BFBDA064B1B68054A23F48033EB
:10258000136000BF0C37BD465DF8047B704700BF89
:1025900000800D4080CFFFFF80B483B000AF786033
:1025A000154B1B6B23F4E0327B681B7B9B039BB2B8
:1025B0001343114A43F4803313630F4B1A6B0F4BD1
:1025C00013407A68127802F0010213430A4A43F476
:1025D0000053136300BF084B1B6B002BFBDA064B49
:1025E0001B6B054A23F48033136300BF0C37BD46D1
:1025F0005DF8047B704700BF00800D40FECFFFFFF9
:1026000080B400AF034B00221A6200BFBD465DF8E4
:10261000047B704700800D4080B400AF044B4FF442
:1026200080521A6700BFBD465DF8047B704700BF4B
:1026300000800D4080B400AF044B4FF48052C3F8CB
:10264000A02000BFBD465DF8047B704700800D40B0
:1026500080B400AF044B4FF48052C3F8E02000BFB9
:10266000BD465DF8047B704700800D4080B485B0A6
:1026700000AF03460A46FB711346BB71FB79FB6052
:10268000124BD3F80021FB68DB00BF2101FA03F3F2
:10269000DB431340BB60FB68DB0080229A400B49A0
:1026A000BB681343C1F80031BB7903F03F02FB68FC
:1026B000DB009A400549BB681343C1F8003100BFF5
:1026C0001437BD465DF8047B704700BF00800D40A5
:1026D00080B500AF044B1B68044A52681146044899
:1026E000984700BF80BD00BF300000200C000020D4
:1026F0000040184080B500AF044B1B68044A926844
:1027000011460448984700BF80BD00BF300000203C
:102710000C0000200080184080B500AF044B1B68FF
:10272000044AD26811460448984700BF80BD00BFE4
:10273000300000200C00002000C0184080B500AF21
:10274000044B1B68044A126911460448984700BFAD
:1027500080BD00BF300000200C00002000001940A8
:1027600080B500AF044B1B68044A52691146044807
:10277000984700BF80BD00BF300000200C00002043
:102780000040194080B500AF044B1B68044A9269B1
:1027900011460448984700BF80BD00BF30000020AC
:1027A0000C0000200080194080B500AF044B1B686E
:1027B000044AD26911460448984700BF80BD00BF53
:1027C000300000200C00002000C0194080B500AF90
:1027D000044B1B68044A126A11460448984700BF1C
:1027E00080BD00BF300000200C00002000001A4017
:1027F00080B485B000AF786039607B689B0EFB6069
:102800007B68DAB21D4B13441A687B685B0BC3F319
:102810000C017B681B0A03F01F0301FA03F3DB437F
:1028200002EA03017B681B0A03F01F033A689A401F
:102830007B685B0BC3F30C007B681B0A03F01F0370
:1028400000FA03F31A407B68D8B20C4B03441846D5
:1028500041EA02030360FB68202B09D000BF074B4D
:102860009A6CFB6822FA03F303F00103002BF6D104
:1028700000BF1437BD465DF8047B704700C00F40B1
:1028800080B485B000AF786039607B689B0EFB60D8
:102890007B68DAB21D4B13441A687B685B0BC3F389
:1028A0000C017B681B0A03F01F0301FA03F3DB43EF
:1028B00002EA03017B681B0A03F01F033A689A408F
:1028C0007B685B0BC3F30C007B681B0A03F01F03E0
:1028D00000FA03F31A407B68D8B20C4B0344184645
:1028E00041EA02030360FB68202B09D000BF074BBD
:1028F0009A6CFB6822FA03F303F00103002BF6D174
:1029000000BF1437BD465DF8047B704700C00F4020
:1029100080B487B000AF03460A46FB8013467B7144
:10292000B7F906301B0A7B61FB8803F01F033B618C
:102930007B699A000B4B1344FB60FB681A68032108
:102940003B6901FA03F3DB431A4079793B6901FAE9
:1029500003F31A43FB681A6000BF1C37BD465DF8DD
:10296000047B704768C00F4080B483B000AF7860CC
:10297000044A7B68136000BF0C37BD465DF8047BDA
:10298000704700BF0400002080B483B000AF7860BF
:10299000044A7B68136000BF0C37BD465DF8047BBA
:1029A000704700BF0800002080B500AF4FF4004022
:1029B000FFF7EAFFD34BD3F8C032D24A43F4803357
:1029C000C2F8C032CF4BD3F8C032CE4A23F4003322
:1029D000C2F8C032CC48FFF7C7FF0020FFF750FD18
:1029E000FFF794FD0120FFF777FDC84B1B6823F02C
:1029F000FF03C64A43F07F0313600121C448FFF779
:102A0000F7FE0121C348FFF7F3FEC34BDB6823F059
:102A10001F03C14A43F01303D36000BFBE4B1B68C2
:102A200003F00043B3F1004FF8D1BC48FFF780FD3D
:102A3000BB48FFF7B1FD1B210020FFF717FE102157
:102A40000120FFF713FE18210220FFF70FFE1021CF
:102A50000320FFF70BFEFFF7DFFD0122B149A94874
:102A600001F097F9A74BD3F87031A64A23F400433D
:102A7000C2F87031A34BD3F87031A24A23F400039B
:102A8000C2F870319F4B1B6F9E4A43F4005313678B
:102A9000FFF7D0FD9B4BD3F8A0309A4A43F4803324
:102AA000C2F8A030974BD3F87031964A23F04043D8
:102AB000C2F87031934BD3F8A030924A43F40053DC
:102AC000C2F8A030FFF7C4FD012297498D4801F0FC
:102AD00060F98C4BD3F8E03023F00303894A43F0CC
:102AE0000103C2F8E030874BD3F8E030854A43F465
:102AF0000053C2F8E030834BD3F8E030814A23F032
:102B00000C03C2F8E0307F4BD3F8E0307D4A43F449
:102B10008013C2F8E0307B4BD3F8E030794A43F4BD
:102B20000013C2F8E030FFF76BFD01227F497548C2
:102B300001F02FF9734B1B6A724A43F4005313627E
:102B400000217B48FFF79CFE4FF4887001F012F9DA
:102B50004FF4847001F00EF940F2162001F00AF9EA
:102B60004FF4067001F006F903217248FFF788FE62
:102B700001217148FFF784FE03217048FFF738FEFA
:102B800000216448FFF734FE00216D48FFF778FE0E
:102B900000215F48FFF72CFE4FF48A7001F0EAF83D
:102BA0004FF48B7001F0E6F8182001F0E3F81A20DA
:102BB00001F0E0F84FF4867001F0DCF80121614883
:102BC000FFF75EFE00216048FFF712FE40F2026050
:102BD00001F0D0F801215D48FFF752FE00215C486A
:102BE000FFF706FE40F2046001F0C4F801215948E5
:102BF000FFF746FE00215848FFF7FAFD4FF44170F9
:102C000001F0B8F807214FF21400FFF739FE002158
:102C10005248FFF7EDFD00215148FFF7E9FD40F272
:102C20000A6001F0A7F800214E48FFF729FE0321B2
:102C30004D48FFF7DDFD40F2022001F09BF8012135
:102C40004A48FFF71DFE00214948FFF7D1FD4FF428
:102C5000807001F08FF84FF4817001F08BF84FF421
:102C6000827001F087F84FF4837001F083F804213B
:102C70004048FFF705FE02213F48FFF7B9FD162047
:102C800001F078F802213D48FFF7FAFD02213C48A7
:102C9000FFF7AEFD40F2125001F06CF80321394805
:102CA000FFF7EEFD01213848FFF7EAFD0021374824
:102CB000FFF79EFD40F2145001F05CF80321344808
:102CC000FFF7DEFD01213348FFF7DAFD002132482E
:102CD000FFF78EFD40F2165001F04CF803212F480B
:102CE000FFF7CEFD01212E48FFF7CAFD00212D4838
:102CF000FFF77EFD40F2062001F03CF84FF4027031
:102D000052E000BF00800D4000366E0100C00F4051
:102D1000186C008014390014000008403442007020
:102D20003C4200700D0070000D00E0000D0020001E
:102D300014EA00041468008010E00040187200805B
:102D400014FB00801CE007801C26008024EB008020
:102D50001C30008024F000801C310080142700808B
:102D6000142600801CF700801C7D00803CEB008056
:102D70003C69008018FA0080186400802479008083
:102D8000186E008028E6008028E007801C6A00801A
:102D90002CE600802CE007801C6C008028F6008068
:102DA00028F007801C6E008000F0E4FF40F20A204B
:102DB00000F0E0FF00216448FFF762FD0021634856
:102DC000FFF716FD0E2000F0D5FF122000F0D2FF15
:102DD00040F2067000F0CEFF102000F0CBFF142070
:102DE00000F0C8FF4FF4E16000F0C4FF0121584833
:102DF000FFF746FD02215748FFF7FAFC4FF4A360A6
:102E000000F0B8FF1C2000F0B5FF0C2000F0B2FF6E
:102E10004FF48C7000F0AEFF40F2023000F0AAFFD9
:102E200040F2063000F0A6FF40F21A5000F0A2FF78
:102E300040F20E6000F09EFF00214748FFF720FDA2
:102E400000214648FFF7D4FC40F20A3000F092FF20
:102E500001214348FFF714FD03214248FFF710FD0D
:102E600005214148FFF7C4FC40F20E5000F082FFFC
:102E700001213E48FFF704FD07213D48FFF700FD13
:102E800003213C48FFF7B4FC40F2025000F072FF0F
:102E900001213948FFF7F4FC07213848FFF7F0FC1F
:102EA00003213748FFF7A4FC4FF4407000F062FFA5
:102EB00001213448FFF7E4FC07213348FFF7E0FC29
:102EC00003213248FFF794FC00213148FFF790FCC2
:102ED000304BD3F860312F4A23F01F03C2F8603122
:102EE0002D4B1B6E2C4A23F0700313662A4B1B6E6E
:102EF00023F00F03284A43F001031366264B1B6E91
:102F0000254A23F460031366234B1B6E23F4F81346
:102F1000214A43F4901313661F4B1B6E1E4A23F481
:102F2000807313661C4B1B6E1B4A23F080031366D1
:102F3000194B1B6E184A23F080731366174B184AFF
:102F40001A6000BF80BD00BF38F3078038320080B0
:102F500020E207802068008024E00780242600808B
:102F600038EC008018F7008038EF008030F90080DE
:102F700030F600803074008030EC008030E9008052
:102F80003067008028E9008028F9008020730080E5
:102F90000C20008000800D4000C00F400000002089
:102FA0000046C32380B400AFBFF34F8F00BFBFF311
:102FB0006F8F00BF0D4B0022C3F85022BFF34F8F1D
:102FC00000BFBFF36F8F00BF084B5B69074A43F434
:102FD00000335361BFF34F8F00BFBFF36F8F00BF4C
:102FE00000BFBD465DF8047B704700BF00ED00E008
:102FF00080B485B000AF1F4B0022C3F88420BFF31C
:103000004F8F00BF1B4BD3F880307B607B685B0B1E
:10301000C3F30E03FB607B68DB08C3F30903BB60EB
:10302000FB685A0143F6E0731340BA6892071149EE
:103030001343C1F86032BB685A1EBA60002BEFD14F
:10304000FB685A1EFA60002BE5D1BFF34F8F00BF1B
:10305000084B5B69074A43F480335361BFF34F8FDA
:1030600000BFBFF36F8F00BF00BF1437BD465DF8D0
:10307000047B704700ED00E080B500AF344BD3F81F
:103080008830334A43F47003C2F88830304B314AF9
:103090009A60314B1B899BB22F4A23F001039BB2EC
:1030A00013812E4B1B899BB22C4A23F001039BB248
:1030B0001381294B1B889BB203F00403002B07D01C
:1030C000254B1B889BB2244A23F004039BB2138038
:1030D000224B1B889BB203F00403002B07D01F4B2D
:1030E0001B889BB21D4A23F004039BB213801C4B28
:1030F0001C4A5A601A4B4FF6FF729A60184B1B68B5
:1031000023F0A003164A43F020031360164B1B68FC
:1031100003F00103002B05D0134B1B68124A23F068
:10312000010313600A4B5B6903F40033B3F5003FFE
:1031300001D0FFF737FF064B5B6903F48033B3F52B
:10314000803F01D0FFF754FF00F04AFE00BF80BD72
:1031500000ED00E00020007000800B4000000D40FA
:1031600000C00B4020C528D910E000E090B585B024
:1031700000AF7A4B5B6903F00073002B48D0774BAC
:103180009B6903F44053B3F5005F28D0B3F5005FAB
:1031900030D8002B03D0B3F5805F1DD02AE0704BF0
:1031A0001B6903F48033002B0BD06D4B1B699B0B09
:1031B00003F00303002B01D16A4B00E00023FB6006
:1031C0001BE0674B1B6903F00203002B01D0664B29
:1031D00000E0664BFB6010E0624BFB600DE0604B73
:1031E0001B6B9B0B03F00303002B01D15D4B00E035
:1031F0000023FB600023FB6000BF584B5B69DB0EC4
:1032000003F007030133FA68B2FBF3F3FB6096E0C7
:10321000534B1B6803F48033002B0BD0504B1B68BF
:103220009B0B03F00303002B01D14E4B00E0002366
:10323000BB6008E04A4B1B6803F07F03494A02FB6E
:1032400003F35B08BB60464B1B6B03F48033002B1E
:103250000BD0434B1B6B9B0B03F00303002B01D1E3
:10326000404B00E000237B6009E03D4B1B6B03F00B
:103270000103002B01D03C4B00E03C4B7B60384B02
:103280001B6D1A464FF00003364901FB03F0002185
:1032900001FB02F144183349A2FB010163181946EE
:1032A0002F4B1B6E1A464FF0000300F0D9FE02466A
:1032B0000B467B6813447B60284B9B6903F44023D7
:1032C000B3F5402F2ED0B3F5402F35D8B3F5002FEE
:1032D0001AD0B3F5002F2FD8002B03D0B3F5802FD1
:1032E00003D029E07B68FB6029E01D4BD3F8003157
:1032F0001B0C03F03F037A68B2FBF3F21346DB00CA
:1033000013445B00FB601AE0154BD3F8003103F067
:103310003F037A68B2FBF3F21346DB0013445B0011
:10332000FB600CE00D4B1B6903F007030133BA6827
:10333000B2FBF3F3FB6002E00023FB6000BF074B2E
:103340005B699B0A03F007030133FA68B2FBF3F3EE
:10335000074A136000BF1437BD4690BD00C00F4040
:1033600000800D4000366E0100A4781F00389C1CC0
:103370000000002010B5174A0020174900F09DFDFD
:103380004FF480734FF480620021124800F050FD2A
:10339000124A1349012000F090FD4FF480734FF45E
:1033A000806200210D4800F043FD0E4B1B68022B8C
:1033B0000EDD0D4A02200A4900F07FFD4FF48073B4
:1033C0004FF4806200210848BDE8104000F030BD95
:1033D00010BD00BF38000020504200707400002073
:1033E000524200704C420070B0000020F7B5044615
:1033F00098B103B0BDE8F04000F0C9BD07FB046020
:10340000013400F0C4FD002818BF4FF0FF35019BC8
:10341000A342F3DC284603B0F0BD034B05463C272E
:10342000024E1B680193F2E74C4200703800002006
:103430002DE9F843C66804463C4B0D4690463340A0
:103440001BB902273846BDE8F883D0F814904846E7
:1034500000F0E0FE07460028F3D1B8F1010F2CD0B0
:10346000B8F1020F2ED0B8F1000FEAD1002DE8DB41
:10347000B00404D52368E26A9A4238BFE362A169C6
:10348000A9420EDC2368E26A934238BF13462269E0
:103490005818801AA84204DB206B01EB000CAC45E5
:1034A00034DC002346F02006A562C4E9013326F48B
:1034B000032626F04006E660C4E7204600F038F810
:1034C0000544D3E7484600F0A2FEB0F1000CE268E4
:1034D00004DA42F080020127E260B3E7236818466D
:1034E000A3691946E36A98422CBF0918C9189206C5
:1034F0000B462169A3EB010303D5A26A9342B8BF2F
:1035000013466345ACBFED186544AFE76D1AB107CC
:1035100044BF281AA060F10726F0200644BF9B1A7A
:10352000EB1A154448BF63602560C0E70300100034
:10353000C3689A0705D10E4B21224FF0FF301A6065
:10354000704703F020021B0309D512B1806A0138CD
:1035500070470368826900691344181AF7E70AB1D3
:10356000806A70470368826900691344181A7047BB
:10357000340000202DE9F041D56880460E461446FF
:10358000EB02576905D545F01005384600F03FFEBF
:10359000A061124B2B408BB1A169384600F040FE70
:1035A000002806DAE3684FF0FF3043F08003E36061
:1035B00011E025F4003525F01005E560324641465E
:1035C000384600F033FE20F00041761AA1690E441F
:1035D000A6610028E6D1BDE8F08100BF100002001E
:1035E00080B500AFFEF71DFF00BF80BD80B500AF06
:1035F000FEF717FF00BF80BD80B500AFFEF711FFDB
:1036000000BF80BD80B500AFFEF70BFF00BF80BDDF
:1036100080B500AFFEF705FF00BF80BD80B500AFED
:10362000FEF7FFFE00BF80BD80B500AFFEF7F9FEDC
:1036300000BF80BD80B500AFFEF7F3FE00BF80BDC8
:1036400080B500AFFEF7EDFE00BF80BD80B500AFD6
:10365000FEF7E7FE00BF80BD80B500AFFEF7E1FEDC
:1036600000BF80BD80B500AFFEF7DBFE00BF80BDB0
:1036700080B500AFFEF7D5FE00BF80BD80B500AFBE
:10368000FEF7CFFE00BF80BD80B500AFFEF7C9FEDC
:1036900000BF80BD80B500AFFEF7C3FE00BF80BD98
:1036A00080B500AFFEF7BDFE00BF80BD80B500AFA6
:1036B000FEF7B7FE00BF80BD80B500AFFEF7B1FEDC
:1036C00000BF80BD80B500AFFEF7ABFE00BF80BD80
:1036D00080B500AFFEF7FCFF00BF80BD80B500AF36
:1036E000FFF708F800BF80BD80B500AFFFF714F802
:1036F00000BF80BD80B500AFFFF720F800BF80BDE0
:1037000080B500AFFFF72CF800BF80BD80B500AFDB
:10371000FFF738F800BF80BD80B500AFFFF744F871
:1037200000BF80BD80B500AFFFF750F800BF80BD7F
:1037300080B500AFFEF775FE00BF80BD80B500AF5D
:10374000FEF76FFE00BF80BD80B500AFFEF769FEDB
:1037500000BF80BD80B500AFFEF763FE00BF80BD37
:1037600080B500AFFEF75DFE00BF80BD80B500AF45
:10377000FEF757FE00BF80BD80B500AFFEF751FEDB
:1037800000BF80BD80B500AFFEF74BFE00BF80BD1F
:1037900080B500AFFEF745FE00BF80BD80B500AF2D
:1037A000FEF73FFE00BF80BD80B500AFFEF739FEDB
:1037B00000BF80BD80B500AFFEF733FE00BF80BD07
:1037C00080B500AFFEF72DFE00BF80BD80B500AF15
:1037D000FEF727FE00BF80BD80B500AFFEF721FEDB
:1037E00000BF80BD80B500AFFEF71BFE00BF80BDEF
:1037F00080B500AFFEF715FE00BF80BD80B500AFFD
:10380000FEF70FFE00BF80BD80B500AFFEF709FEDA
:1038100000BF80BD80B500AFFEF703FE00BF80BDD6
:1038200080B500AFFEF7FDFD00BF80BD80B500AFE5
:10383000FEF7F7FD00BF80BD80B500AFFEF7F1FDDC
:1038400000BF80BD80B500AFFEF7EBFD00BF80BDBF
:1038500080B500AFFEF7E5FD00BF80BD80B500AFCD
:10386000FEF7DFFD00BF80BD80B500AFFEF7D9FDDC
:1038700000BF80BD80B500AFFEF7D3FD00BF80BDA7
:1038800080B500AFFEF7CDFD00BF80BD80B500AFB5
:10389000FEF7C7FD00BF80BD80B500AFFEF7C1FDDC
:1038A00000BF80BD80B500AFFEF7BBFD00BF80BD8F
:1038B00080B500AFFEF7B5FD00BF80BD80B500AF9D
:1038C000FEF7AFFD00BF80BD80B500AFFEF7A9FDDC
:1038D00000BF80BD80B500AFFEF7A3FD00BF80BD77
:1038E00080B500AFFEF79DFD00BF80BD80B500AF85
:1038F000FEF797FD00BF80BD80B500AFFEF791FDDC
:1039000000BF80BD80B500AFFEF78BFD00BF80BD5E
:1039100080B500AFFEF785FD00BF80BD80B500AF6C
:10392000FEF77FFD00BF80BD80B500AFFEF779FDDB
:1039300000BF80BD80B500AFFEF773FD00BF80BD46
:1039400080B500AFFEF76DFD00BF80BD80B500AF54
:10395000FEF767FD00BF80BD80B500AFFEF761FDDB
:1039600000BF80BD80B500AFFEF75BFD00BF80BD2E
:1039700080B500AFFEF755FD00BF80BD80B500AF3C
:10398000FEF74FFD00BF80BD80B500AFFEF749FDDB
:1039900000BF80BD80B500AFFEF743FD00BF80BD16
:1039A00080B500AFFEF73DFD00BF80BD80B500AF24
:1039B000FEF737FD00BF80BD80B500AFFEF731FDDB
:1039C00000BF80BD80B500AFFEF72BFD00BF80BDFE
:1039D00080B500AFFEF725FD00BF80BD80B500AF0C
:1039E000FEF71FFD00BF80BD80B500AFFEF719FDDB
:1039F00000BF80BD80B500AFFEF713FD00BF80BDE6
:103A000080B500AFFEF70DFD00BF80BD80B500AFF3
:103A1000FEF707FD00BF80BD80B500AFFEF701FDDA
:103A200000BF80BD80B500AFFEF7FBFC00BF80BDCE
:103A300080B500AFFEF7F5FC00BF80BD80B500AFDC
:103A4000FEF7EFFC00BF80BD80B500AFFEF7E9FCDC
:103A500000BF80BD80B500AFFEF7E3FC00BF80BDB6
:103A600080B500AFFEF7DDFC00BF80BD80B500AFC4
:103A7000FEF7D7FC00BF80BD80B500AFFEF7D1FCDC
:103A800000BF80BD80B500AFFEF7CBFC00BF80BD9E
:103A900080B500AFFEF7C5FC00BF80BD80B500AFAC
:103AA000FEF7BFFC00BF80BD80B500AFFEF7B9FCDC
:103AB00000BF80BD80B500AFFEF7B3FC00BF80BD86
:103AC00080B500AFFEF7ADFC00BF80BD80B500AF94
:103AD000FEF7A7FC00BF80BD80B500AFFEF7A1FCDC
:103AE00000BF80BD80B500AFFEF79BFC00BF80BD6E
:103AF00080B500AFFEF795FC00BF80BD80B500AF7C
:103B0000FEF78FFC00BF80BD80B500AFFEF789FCDB
:103B100000BF80BD80B500AFFEF783FC00BF80BD55
:103B200080B500AFFEF77DFC00BF80BD80B500AF63
:103B3000FEF777FC00BF80BD80B500AFFEF771FCDB
:103B400000BF80BD80B500AFFEF76BFC00BF80BD3D
:103B500080B500AFFEF765FC00BF80BD80B500AF4B
:103B6000FEF75FFC00BF80BD80B500AFFEF759FCDB
:103B700000BF80BD80B500AFFEF753FC00BF80BD25
:103B800080B500AFFEF74DFC00BF80BD80B500AF33
:103B9000FEF747FC00BF80BD80B500AFFEF741FCDB
:103BA00000BF80BD80B500AFFEF73BFC00BF80BD0D
:103BB00080B500AFFEF735FC00BF80BD80B500AF1B
:103BC000FEF72FFC00BF80BD80B500AFFEF729FCDB
:103BD00000BF80BD80B500AFFEF723FC00BF80BDF5
:103BE00080B500AFFEF71DFC00BF80BD80B500AF03
:103BF000FEF717FC00BF80BD80B500AFFEF711FCDB
:103C000000BF80BD80B500AFFEF70BFC00BF80BDDC
:103C100080B500AFFEF705FC00BF80BD80B500AFEA
:103C2000FEF7FFFB00BF80BD80B500AFFEF7F9FBDC
:103C300000BF80BD80B500AFFEF7F3FB00BF80BDC5
:103C400080B500AFFEF7EDFB00BF80BD80B500AFD3
:103C5000FEF7E7FB00BF80BD80B500AFFEF7E1FBDC
:103C600000BF80BD80B500AFFEF7DBFB00BF80BDAD
:103C700080B500AFFEF7D5FB00BF80BD80B500AFBB
:103C8000FEF7CFFB00BF80BD80B500AFFEF7C9FBDC
:103C900000BF80BD80B500AFFEF7C3FB00BF80BD95
:103CA00080B500AFFEF7BDFB00BF80BD80B500AFA3
:103CB000FEF7B7FB00BF80BD80B500AFFEF7B1FBDC
:103CC00000BF80BD80B500AFFEF7ABFB00BF80BD7D
:103CD00080B500AFFEF7A5FB00BF80BD80B500AF8B
:103CE000FEF79FFB00BF80BD80B500AFFEF799FBDC
:103CF00000BF80BD80B500AFFEF793FB00BF80BD65
:103D000080B500AFFEF78DFB00BF80BD80B500AF72
:103D1000FEF787FB00BF80BD80B500AFFEF781FBDB
:103D200000BF80BD80B500AFFEF77BFB00BF80BD4C
:103D300080B500AFFEF775FB00BF80BD80B500AF5A
:103D4000FEF76FFB00BF80BD04207146084202D021
:103D5000EFF3098001E0EFF3088081690A884BF6F0
:103D6000AB639A4200D0FEE70231816120210160FD
:103D7000704700BF80B582B000AF0346FB80B7F943
:103D8000063000211846FEF7C3FD00BF0837BD46C8
:103D900080BD80B485B000AFF860B9601346FB7198
:103DA000FB79002B0BD0BB681B0CC3F30B02FB6829
:103DB000134404331A464FF4803313600AE0BB689F
:103DC0001B0CC3F30B02FB68134408331A464FF471
:103DD0008033136000BF1437BD465DF8047B704725
:103DE00080B400AF00BFBD465DF8047B704708B5E6
:103DF000FFF7C0FABDE80840FEF716BB00F0EBB9CC
:103E0000A8B14FF0805340F80C3C50F8042C72B12C
:103E10001368B3F1805F0AD150F8083C516803334E
:103E20000B4440F8083C936840F8043CEDE77047C9
:103E300070B5C468A50708D0B2F5007F11D0B2F5FF
:103E4000806F04D0B2F5807F0BD0012008E000F134
:103E500024010123224301610160C361C26000208B
:103E600070BD5E1E6FF07F45AE42F3D3EDE7421C9E
:103E700010B58307044616D1234654F8041BA1F15C
:103E8000013020EA010010F0803FF5D011F0FF0F63
:103E900011D011F47F4F0CD011F47F0F14BF2346C3
:103EA0000333981A04E010F8013B002BE1D1801A8B
:103EB00010BD0233F5E70133F3E770B50D46064652
:103EC0001046144600F02DF82B78722B17D0772B64
:103ED00018D0612B23D1082348F2020215F8011FE4
:103EE0002B2912D0622915D01B07E260666104D528
:103EF000022200212046FFF79BFA204670BD0023D6
:103F00000122EBE704230222E8E742F0030243F038
:103F10000203E3E742F0040243F00103DEE700247A
:103F2000EBE7F0B5C46889B00546A10722D02207A7
:103F300018D4D0E90467FFF759FA384600F064F95D
:103F4000230502D53046FFF75BFFA40DA40514F14D
:103F5000A54F07D12022296A684600F064F9684617
:103F600000F00BF83C2200212846FFF747FF002015
:103F700009B0F0BD4FF0FF30FAE710B50446FFF787
:103F800076FF01462046BDE8104000F046B9C36800
:103F900070B513F00306044611D09B0611D5856A4F
:103FA00000F03EF8E368204623F44053E36000F05D
:103FB0000EF80022064629462046FFF739FA304619
:103FC00070BD816905680D4401696D1AEAE738B56D
:103FD000016804460569C36AC06820F40022E260F3
:103FE00000F08202022A02D04FF0FF3038BD10F4F8
:103FF0008030FBD0994238BF19468D4208D1E36822
:104000000020E56223F480332560A060E360EDE7E3
:104010002246491B2846FFF7ADFA0028EFD0E3E718
:10402000C368826923F0200310B5C3600446836A25
:104030009A420ED0FFF7CBFFE36823F4405323F0FE
:10404000100343F01003E360A36AA3612369E362F2
:104050002360E36823F4804323F04003E36010BD52
:104060005FF0000C30B51C0022D112006FD09142DD
:1040700006D305460846002100F06FF8044628469E
:1040800000F06BF80A462146BDE830401CF0404F76
:1040900008BF704703D54942404261F100015FEA21
:1040A0008C0C38BF70475B42524263F1000370478B
:1040B00042D41C0C04BF1B040CF1100C13F07F4FF6
:1040C00004BF1B020CF1080C13F0704F04BF1B015E
:1040D0000CF1040C13F0404F04BF0CF1020C5FEA2A
:1040E00083035CBF0CF1010C5B00CCF1200E22FAC3
:1040F0000EF4234302FA0CF200FA0CF520FA0EF04B
:1041000001FA0CF4204321FA0EF114461A4600F08D
:1041100024F8A4FB0023AA1A71EB03033CBF1B196C
:104120000138CCF1200E22FA0CF203FA0EF42243ED
:1041300023FA0CF30021A7E7821A71EB03033CBFBB
:1041400002460B464FF0000141F100009CE70020C1
:104150000021BDE8304000F03DB80423B1EB122F40
:1041600009D2090241EA10610002013B08BF704711
:10417000B1EB122FF5D30018494134BF9142891A8F
:104180004041494134BF9142891A4041494134BFBD
:104190009142891A4041494134BF9142891A4041B4
:1041A000494134BF9142891A4041494134BF91424B
:1041B000891A4041494134BF9142891A40414941DD
:1041C00034BF9142891A4041A3F1010313F00F0F4C
:1041D000D2D170477047034613F0030F0ED101F0A0
:1041E000FF0141EA012141EA0141043A24BF43F8B9
:1041F000041BB2F10402F9D202F10402013A24BF15
:1042000003F8011BFAE770474FF0FF3070474FF09B
:10421000FF3070474FF0FF3070474FF0FF3070476E
:104220004FF0FF3070474FF0FF3070471046704737
:1042300000FFFFFF6400000000000000010000001C
:10424000000000000100000000000000030000006A
:044250007200770081
:0442540000A4781F2B
:04000005700023095B
:00000001FF
