S01600004750494F5F4672616D65776F726B2E73726563D2
S11300000C9450000C9462000C9462000C946200F6
S11300100C9462000C9462000C9462000C946200D4
S11300200C9462000C9462000C9462000C946200C4
S11300300C9462000C9462000C9462000C946200B4
S11300400C9462000C9462000C9462000C946200A4
S11300500C9462000C9462000C9462000C94620094
S11300600C9462000C9462000C9462000C94620084
S11300700C9462000C9462000C9462000C94620074
S11300800C9462000C9462000C9462000C94620064
S11300900C9462000C9462000C9462000C94620054
S11300A011241FBECFEFCDBFDFE3DEBF28E2A0E007
S11300B0B8E201C01D92A030B207E1F70E9412011C
S11300C00C9450040C9400000E94E40108958F9253
S11300D09F92AF92BF92EF92FF920F931F93CF9391
S11300E0DF93CDB7DEB76297CDBFDEBF4B015C01B6
S11300F082E1E4EAF8E4DE01119601900D928A951A
S1130100E1F78E010F5F1F4F7E0182E1E80EF11CC3
S1130110F80181918F010E940F020E151F05C1F78E
S113012020E030E040E452E4C501B4010E9418022A
S11301300E94FB02862F0E940F028EE20E940F0291
S1130140C501B4010E94FB02072E000C880B990B19
S11301500E9433039B01AC01C501B4010E94170244
S113016020E030E040E251E40E94E3030E94FB02FD
S113017080E3860F0E940F0220E030E040E251E469
S1130180C501B4010E94E3034B015C010E94FB0220
S1130190072E000C880B990B0E9433039B01AC01C2
S11301A0C501B4010E94170220E030E040E251E4AE
S11301B00E94E30320E030E040E452E40E9418028D
S11301C00E940203862F0E940F026296CDBFDEBFFB
S11301D0DF91CF911F910F91FF90EF90BF90AF905F
S11301E09F908F900895E0EEF5E08281259AA5E333
S11301F0B4E09C91977F9C932D98409AA0E5B4E03D
S11302009C91977F9C934198A1E5B4E09C91977F42
S11302109C936098A0E7B4E09C91977F9C938B7F1C
S113022082830895CF93DF93CDB7DEB72697CDBFF2
S1130230DEBF19821A821B821C821D821E8210E07C
S11302400F2EE12CF6E0FF2EF02D01E01130D9F055
S113025030F01230F1F0133009F444C0F7CF0E94AB
S113026064000E94F3000E9492010E948401F7013D
S1130270068B0E948C010E9401020E94F1010E94DF
S1130280FB01102FE3CF0E9407028033F9F612E03E
S1130290DDCF80E00E9498010E949E018823E1F353
S11302A00E94A20189839A8369817A8180E090E027
S11302B00E94310325E83BEE41E550E40E94E3034C
S11302C020E030EC4FE754E40E9489026B837C8386
S11302D08D839E836B817C818D819E810E946700CA
S11302E013E0B4CF6B817C818D819E8120E030E06E
S11302F040E250E40E94840288231CF02D9A102FBF
S1130300A5CF2D98102FA2CFE0E0F6E081E1828303
S113031081E0808380E00895E0E0F6E08081816000
S113032080830895E0E0F6E080818E7F80830895E5
S1130330E0E0F6E0868381E08087089580910B06F3
S1130340817008958091100690911106089580E0BF
S1130350089580E0089580E00895E0E1F4E080816C
S113036088608193E83184E0F807C9F7E0E3F4E0BA
S1130370808188608193E83384E0F807C9F7E0E579
S1130380F4E0808188608193E83584E0F807C9F758
S1130390E0E7F4E0808188608193E83784E0F8073F
S11303A0C9F7E0E9F4E0808188608193E83984E06A
S11303B0F807C9F7E0EBF4E0808188608193E83BBB
S11303C084E0F807C9F708950E94AD010E94A901CD
S11303D00E94AB010E94EF010E94A701089580E0F2
S11303E00895E0E2F8E08DE695E08087918780EC5F
S11303F0868380E00895E0E2F8E08681806C86835D
S11304000895E0E2F8E086818F7386830895E0E240
S1130410F8E084818823ECF7809120080895E0E2D5
S1130420F8E0948195FFFDCF8093220808955058F9
S1130430BB27AA270E942F020C94A9030E949B03A6
S113044038F00E94A20320F039F49F3F19F426F4F7
S11304500C9498030EF4E095E7FB0C949203E92FB7
S11304600E94BA0358F3BA17620773078407950703
S113047020F079F4A6F50C94DC030EF4E0950B2E31
S1130480BA2FA02D0B01B90190010C01CA01A001E2
S11304901124FF27591B99F0593F50F4503E68F13D
S11304A01A16F040A22F232F342F4427585FF3CF7E
S11304B0469537952795A795F0405395C9F77EF44F
S11304C01F16BA0B620B730B840BBAF09150A1F098
S11304D0FF0FBB1F661F771F881FC2F70EC0BA0F1E
S11304E0621F731F841F48F4879577956795B795A6
S11304F0F7959E3F08F0B0CF9395880F08F09927A1
S1130500EE0F9795879508950E946E0308F481E095
S113051008950E949D020C94A9030E94A20358F01E
S11305200E949B0340F029F45F3F29F00C9492034E
S113053051110C94DD030C9498030E94BA0368F3E0
S11305409923B1F3552391F3951B550BBB27AA2788
S113055062177307840738F09F5F5F4F220F331FC2
S1130560441FAA1FA9F335D00E2E3AF0E0E832D08A
S113057091505040E695001CCAF72BD0FE2F29D08D
S1130580660F771F881FBB1F261737074807AB075F
S1130590B0E809F0BB0B802DBF01FF2793585F4FD4
S11305A03AF09E3F510578F00C9492030C94DD03CD
S11305B05F3FE4F3983ED4F3869577956795B795B6
S11305C0F7959F5FC9F7880F911D9695879597F9C1
S11305D00895E1E0660F771F881FBB1F621773073A
S11305E08407BA0720F0621B730B840BBA0BEE1F4F
S11305F088F7E09508950E9402036894B1110C9461
S1130600DD0308950E94C20388F09F5798F0B92F24
S11306109927B751B0F0E1F0660F771F881F991F33
S11306201AF0BA95C9F714C0B13091F00E94DC03F6
S1130630B1E008950C94DC03672F782F8827B85F06
S113064039F0B93FCCF3869577956795B395D9F78B
S11306503EF490958095709561957F4F8F4F9F4F95
S11306600895E89409C097FB3EF4909580957095A1
S113067061957F4F8F4F9F4F9923A9F0F92F96E9EA
S1130680BB279395F695879577956795B795F1115F
S1130690F8CFFAF4BB0F11F460FF1BC06F5F7F4FFC
S11306A08F4F9F4F16C0882311F096E911C077230E
S11306B021F09EE8872F762F05C0662371F096E817
S11306C0862F70E060E02AF09A95660F771F881FE6
S11306D0DAF7880F9695879597F90895990F00088A
S11306E0550FAA0BE0E8FEEF16161706E807F90700
S11306F0C0F012161306E407F50798F0621B730B9B
S1130700840B950B39F40A2661F0232B242B252B1B
S113071021F408950A2609F4A140A6958FEF811DBE
S1130720811D089597F99F6780E870E060E008955F
S11307309FEF80EC089500240A94161617061806F5
S11307400906089500240A941216130614060506D1
S11307500895092E0394000C11F4882352F0BB0F62
S113076040F4BF2B11F460FF04C06F5F7F4F8F4FC5
S11307709F4F089557FD9058440F551F59F05F3F00
S113078071F04795880F97FB991F61F09F3F79F0AF
S113079087950895121613061406551FF2CF469531
S11307A0F1DF08C0161617061806991FF1CF8695B3
S11307B07105610508940895E894BB276627772797
S11307C0CB0197F908950E94F6030C94A9030E94A3
S11307D09B0338F00E94A20320F0952311F00C949F
S11307E092030C94980311240C94DD030E94BA0321
S11307F070F3959FC1F3950F50E0551F629FF00170
S1130800729FBB27F00DB11D639FAA27F00DB11D88
S1130810AA1F649F6627B00DA11D661F829F222711
S1130820B00DA11D621F739FB00DA11D621F839F98
S1130830A00D611D221F749F3327A00D611D231F6E
S1130840849F600D211D822F762F6A2F11249F57BC
S113085050409AF0F1F088234AF0EE0FFF1FBB1FBF
S1130860661F771F881F91505040A9F79E3F51057E
S113087080F00C9492030C94DD035F3FE4F3983E04
S1130880D4F3869577956795B795F795E7959F5F28
S1130890C1F7FE2B880F911D9695879597F90895BA
S10708A0F894FFCFF6
S11308A44D6561737572656420566F6C7461676518
S10508B43A0004
S9030000FC
